{
  "_format": "hh-sol-artifact-1",
  "contractName": "CarRental",
  "sourceName": "contracts/CarRental.sol",
  "abi": [
    {
      "inputs": [],
      "stateMutability": "nonpayable",
      "type": "constructor"
    },
    {
      "inputs": [
        {
          "internalType": "address payable",
          "name": "walletAddress",
          "type": "address"
        },
        {
          "internalType": "string",
          "name": "firstName",
          "type": "string"
        },
        {
          "internalType": "string",
          "name": "lastName",
          "type": "string"
        },
        {
          "internalType": "bool",
          "name": "canRent",
          "type": "bool"
        },
        {
          "internalType": "bool",
          "name": "active",
          "type": "bool"
        },
        {
          "internalType": "uint256",
          "name": "balance",
          "type": "uint256"
        },
        {
          "internalType": "uint256",
          "name": "due",
          "type": "uint256"
        },
        {
          "internalType": "uint256",
          "name": "start",
          "type": "uint256"
        },
        {
          "internalType": "uint256",
          "name": "end",
          "type": "uint256"
        }
      ],
      "name": "addRenter",
      "outputs": [],
      "stateMutability": "nonpayable",
      "type": "function"
    },
    {
      "inputs": [],
      "name": "balanceOf",
      "outputs": [
        {
          "internalType": "uint256",
          "name": "",
          "type": "uint256"
        }
      ],
      "stateMutability": "view",
      "type": "function"
    },
    {
      "inputs": [
        {
          "internalType": "address",
          "name": "walletAddress",
          "type": "address"
        }
      ],
      "name": "balanceOfRenter",
      "outputs": [
        {
          "internalType": "uint256",
          "name": "",
          "type": "uint256"
        }
      ],
      "stateMutability": "view",
      "type": "function"
    },
    {
      "inputs": [
        {
          "internalType": "address",
          "name": "walletAddress",
          "type": "address"
        }
      ],
      "name": "canRentCar",
      "outputs": [
        {
          "internalType": "bool",
          "name": "",
          "type": "bool"
        }
      ],
      "stateMutability": "view",
      "type": "function"
    },
    {
      "inputs": [
        {
          "internalType": "address",
          "name": "walletAddress",
          "type": "address"
        }
      ],
      "name": "checkIn",
      "outputs": [],
      "stateMutability": "nonpayable",
      "type": "function"
    },
    {
      "inputs": [
        {
          "internalType": "address",
          "name": "walletAddress",
          "type": "address"
        }
      ],
      "name": "checkOut",
      "outputs": [],
      "stateMutability": "nonpayable",
      "type": "function"
    },
    {
      "inputs": [
        {
          "internalType": "address",
          "name": "walletAddress",
          "type": "address"
        }
      ],
      "name": "deposit",
      "outputs": [],
      "stateMutability": "payable",
      "type": "function"
    },
    {
      "inputs": [
        {
          "internalType": "address",
          "name": "walletAddress",
          "type": "address"
        }
      ],
      "name": "getDue",
      "outputs": [
        {
          "internalType": "uint256",
          "name": "",
          "type": "uint256"
        }
      ],
      "stateMutability": "view",
      "type": "function"
    },
    {
      "inputs": [],
      "name": "getOwnerBalance",
      "outputs": [
        {
          "internalType": "uint256",
          "name": "",
          "type": "uint256"
        }
      ],
      "stateMutability": "view",
      "type": "function"
    },
    {
      "inputs": [
        {
          "internalType": "address",
          "name": "walletAddress",
          "type": "address"
        }
      ],
      "name": "getRenter",
      "outputs": [
        {
          "internalType": "string",
          "name": "firstName",
          "type": "string"
        },
        {
          "internalType": "string",
          "name": "lastName",
          "type": "string"
        },
        {
          "internalType": "bool",
          "name": "canRent",
          "type": "bool"
        },
        {
          "internalType": "bool",
          "name": "active",
          "type": "bool"
        }
      ],
      "stateMutability": "view",
      "type": "function"
    },
    {
      "inputs": [
        {
          "internalType": "address",
          "name": "walletAddress",
          "type": "address"
        }
      ],
      "name": "getTotalDuration",
      "outputs": [
        {
          "internalType": "uint256",
          "name": "",
          "type": "uint256"
        }
      ],
      "stateMutability": "view",
      "type": "function"
    },
    {
      "inputs": [
        {
          "internalType": "address",
          "name": "walletAddress",
          "type": "address"
        },
        {
          "internalType": "uint256",
          "name": "amount",
          "type": "uint256"
        }
      ],
      "name": "makePayment",
      "outputs": [],
      "stateMutability": "nonpayable",
      "type": "function"
    },
    {
      "inputs": [
        {
          "internalType": "address",
          "name": "walletAddress",
          "type": "address"
        }
      ],
      "name": "renterExists",
      "outputs": [
        {
          "internalType": "bool",
          "name": "",
          "type": "bool"
        }
      ],
      "stateMutability": "view",
      "type": "function"
    },
    {
      "inputs": [
        {
          "internalType": "address",
          "name": "",
          "type": "address"
        }
      ],
      "name": "renters",
      "outputs": [
        {
          "internalType": "address payable",
          "name": "walletAddress",
          "type": "address"
        },
        {
          "internalType": "string",
          "name": "firstName",
          "type": "string"
        },
        {
          "internalType": "string",
          "name": "lastName",
          "type": "string"
        },
        {
          "internalType": "bool",
          "name": "canRent",
          "type": "bool"
        },
        {
          "internalType": "bool",
          "name": "active",
          "type": "bool"
        },
        {
          "internalType": "uint256",
          "name": "balance",
          "type": "uint256"
        },
        {
          "internalType": "uint256",
          "name": "due",
          "type": "uint256"
        },
        {
          "internalType": "uint256",
          "name": "start",
          "type": "uint256"
        },
        {
          "internalType": "uint256",
          "name": "end",
          "type": "uint256"
        }
      ],
      "stateMutability": "view",
      "type": "function"
    },
    {
      "inputs": [],
      "name": "withdrawOwnerBalance",
      "outputs": [],
      "stateMutability": "payable",
      "type": "function"
    }
  ],
  "bytecode": "0x608060405234801561001057600080fd5b50600080546001600160a01b0319163317905561137f806100326000396000f3fe6080604052600436106100e85760003560e01c8063941b80ac1161008a578063d9a59e3311610059578063d9a59e3314610269578063f340fa0114610289578063f98cf07c1461029c578063f9d8241c146102bc57600080fd5b8063941b80ac146101f1578063aad1b617146101f9578063af6143d314610219578063c6d2a8461461024957600080fd5b8063644a1370116100c6578063644a1370146101575780636a4b27f41461018c578063722713f7146101bc5780638d23caa0146101d157600080fd5b806341ba6e89146100ed578063590791f2146101205780635e64972714610135575b600080fd5b3480156100f957600080fd5b5061010d610108366004610e63565b6102dc565b6040519081526020015b60405180910390f35b34801561012c57600080fd5b5061010d6103ab565b34801561014157600080fd5b50610155610150366004610f3f565b6103dd565b005b34801561016357600080fd5b50610177610172366004610e63565b6104df565b60405161011799989796959493929190611042565b34801561019857600080fd5b506101ac6101a7366004610e63565b610647565b60405161011794939291906110b0565b3480156101c857600080fd5b5061010d610802565b3480156101dd57600080fd5b506101556101ec366004610e63565b610832565b61015561096b565b34801561020557600080fd5b5061010d610214366004610e63565b6109a9565b34801561022557600080fd5b50610239610234366004610e63565b6109f4565b6040519015158152602001610117565b34801561025557600080fd5b5061010d610264366004610e63565b610a42565b34801561027557600080fd5b50610155610284366004610e63565b610a8d565b610155610297366004610e63565b610b65565b3480156102a857600080fd5b506101556102b73660046110ee565b610bc2565b3480156102c857600080fd5b506102396102d7366004610e63565b610d8b565b600081336001600160a01b038216146103105760405162461bcd60e51b81526004016103079061111a565b60405180910390fd5b6001600160a01b038316600090815260026020526040902060060154158061035157506001600160a01b038316600090815260026020526040902060070154155b1561035f57600091506103a5565b6001600160a01b0383166000908152600260205260408120600681015460079091015461038c9190610de8565b9050600061039b603c83611165565b93506103a5915050565b50919050565b600080546001600160a01b031633146103d65760405162461bcd60e51b815260040161030790611187565b5060015490565b60408051610120810182526001600160a01b038b811680835260208084018d81528486018d90528b151560608601528a1515608086015260a085018a905260c0850189905260e08501889052610100850187905260009283526002909152939020825181546001600160a01b031916921691909117815591519091906001820190610468908261124c565b506040820151600282019061047d908261124c565b506060820151600382018054608085015161ffff1990911692151561ff00191692909217610100921515830217905560a0830151600483015560c0830151600583015560e0830151600683015590910151600790910155505050505050505050565b600260205260009081526040902080546001820180546001600160a01b03909216929161050b906111c9565b80601f0160208091040260200160405190810160405280929190818152602001828054610537906111c9565b80156105845780601f1061055957610100808354040283529160200191610584565b820191906000526020600020905b81548152906001019060200180831161056757829003601f168201915b505050505090806002018054610599906111c9565b80601f01602080910402602001604051908101604052809291908181526020018280546105c5906111c9565b80156106125780601f106105e757610100808354040283529160200191610612565b820191906000526020600020905b8154815290600101906020018083116105f557829003601f168201915b5050506003840154600485015460058601546006870154600790970154959660ff808516976101009095041695509193509189565b60608060008084336001600160a01b038216146106765760405162461bcd60e51b81526004016103079061111a565b6001600160a01b0386166000908152600260205260409020600101805461069c906111c9565b80601f01602080910402602001604051908101604052809291908181526020018280546106c8906111c9565b80156107155780601f106106ea57610100808354040283529160200191610715565b820191906000526020600020905b8154815290600101906020018083116106f857829003601f168201915b5050505050945060026000876001600160a01b03166001600160a01b03168152602001908152602001600020600201805461074f906111c9565b80601f016020809104026020016040519081016040528092919081815260200182805461077b906111c9565b80156107c85780601f1061079d576101008083540402835291602001916107c8565b820191906000526020600020905b8154815290600101906020018083116107ab57829003601f168201915b5050506001600160a01b0390981660009081526002602052604090206003015496989197505060ff80871696610100900416945092505050565b600080546001600160a01b0316331461082d5760405162461bcd60e51b815260040161030790611187565b504790565b80336001600160a01b0382161461085b5760405162461bcd60e51b81526004016103079061111a565b6001600160a01b038216600090815260026020526040902060050154156108c45760405162461bcd60e51b815260206004820152601b60248201527f596f75206861766520612070656e64696e672062616c616e63652e00000000006044820152606401610307565b6001600160a01b03821660009081526002602052604090206003015460ff1615156001146109345760405162461bcd60e51b815260206004820152601d60248201527f596f752063616e6e6f742072656e7420617420746869732074696d652e0000006044820152606401610307565b506001600160a01b031660009081526002602052604090206003810180544260069093019290925561ffff19909116610100179055565b600080546001546040516001600160a01b039092169281156108fc029290818181858888f193505050501580156109a6573d6000803e3d6000fd5b50565b600081336001600160a01b038216146109d45760405162461bcd60e51b81526004016103079061111a565b50506001600160a01b031660009081526002602052604090206004015490565b600081336001600160a01b03821614610a1f5760405162461bcd60e51b81526004016103079061111a565b50506001600160a01b031660009081526002602052604090206003015460ff1690565b600081336001600160a01b03821614610a6d5760405162461bcd60e51b81526004016103079061111a565b50506001600160a01b031660009081526002602052604090206005015490565b80336001600160a01b03821614610ab65760405162461bcd60e51b81526004016103079061111a565b6001600160a01b03821660009081526002602052604090206003015460ff610100909104161515600114610b2c5760405162461bcd60e51b815260206004820152601d60248201527f506c6561736520636865636b206f75742061206361722066697273742e0000006044820152606401610307565b6001600160a01b038216600090815260026020526040902060038101805461ff001916905542600790910155610b6182610dfd565b5050565b80336001600160a01b03821614610b8e5760405162461bcd60e51b81526004016103079061111a565b6001600160a01b03821660009081526002602052604081206004018054349290610bb990849061130c565b90915550505050565b81336001600160a01b03821614610beb5760405162461bcd60e51b81526004016103079061111a565b6001600160a01b038316600090815260026020526040902060050154610c665760405162461bcd60e51b815260206004820152602a60248201527f596f7520646f206e6f74206861766520616e797468696e6720647565206174206044820152693a3434b9903a34b6b29760b11b6064820152608401610307565b6001600160a01b0383166000908152600260205260409020600401548210610d045760405162461bcd60e51b815260206004820152604560248201527f596f7520646f206e6f74206861766520656e6f7567682066756e647320746f2060448201527f636f766572207061796d656e742e20506c65617365206d616b6520612064657060648201526437b9b4ba1760d91b608482015260a401610307565b6001600160a01b03831660009081526002602052604081206004018054849290610d2f90849061131f565b925050819055508160016000828254610d48919061130c565b9091555050506001600160a01b03909116600090815260026020526040812060038101805460ff1916600117905560058101829055600681018290556007015550565b600081336001600160a01b03821614610db65760405162461bcd60e51b81526004016103079061111a565b6001600160a01b038381166000908152600260205260409020541615610ddf57600191506103a5565b50600092915050565b6000610df4838361131f565b90505b92915050565b6000610e08826102dc565b90506000610e17600583611165565b9050610e2a816611c37937e08000611332565b6001600160a01b039093166000908152600260205260409020600501929092555050565b6001600160a01b03811681146109a657600080fd5b600060208284031215610e7557600080fd5b8135610e8081610e4e565b9392505050565b634e487b7160e01b600052604160045260246000fd5b600082601f830112610eae57600080fd5b813567ffffffffffffffff80821115610ec957610ec9610e87565b604051601f8301601f19908116603f01168101908282118183101715610ef157610ef1610e87565b81604052838152866020858801011115610f0a57600080fd5b836020870160208301376000602085830101528094505050505092915050565b80358015158114610f3a57600080fd5b919050565b60008060008060008060008060006101208a8c031215610f5e57600080fd5b8935610f6981610e4e565b985060208a013567ffffffffffffffff80821115610f8657600080fd5b610f928d838e01610e9d565b995060408c0135915080821115610fa857600080fd5b50610fb58c828d01610e9d565b975050610fc460608b01610f2a565b9550610fd260808b01610f2a565b989b979a50959894979660a0860135965060c08601359560e0810135955061010001359350915050565b6000815180845260005b8181101561102257602081850181015186830182015201611006565b506000602082860101526020601f19601f83011685010191505092915050565b6001600160a01b038a168152610120602082018190526000906110678382018c610ffc565b9050828103604084015261107b818b610ffc565b98151560608401525050941515608086015260a085019390935260c084019190915260e0830152610100909101529392505050565b6080815260006110c36080830187610ffc565b82810360208401526110d58187610ffc565b9415156040840152505090151560609091015292915050565b6000806040838503121561110157600080fd5b823561110c81610e4e565b946020939093013593505050565b6020808252818101527f596f752063616e206f6e6c79206d616e61676520796f7572206163636f756e74604082015260600190565b634e487b7160e01b600052601160045260246000fd5b60008261118257634e487b7160e01b600052601260045260246000fd5b500490565b60208082526022908201527f596f7520617265206e6f7420616c6c6f77656420746f20616363657373207468604082015261697360f01b606082015260800190565b600181811c908216806111dd57607f821691505b6020821081036103a557634e487b7160e01b600052602260045260246000fd5b601f82111561124757600081815260208120601f850160051c810160208610156112245750805b601f850160051c820191505b8181101561124357828155600101611230565b5050505b505050565b815167ffffffffffffffff81111561126657611266610e87565b61127a8161127484546111c9565b846111fd565b602080601f8311600181146112af57600084156112975750858301515b600019600386901b1c1916600185901b178555611243565b600085815260208120601f198616915b828110156112de578886015182559484019460019091019084016112bf565b50858210156112fc5787850151600019600388901b60f8161c191681555b5050505050600190811b01905550565b80820180821115610df757610df761114f565b81810381811115610df757610df761114f565b8082028115828204841417610df757610df761114f56fea26469706673582212207eaf47d81ec84d06e551426b5ce3d1ed3828db476ea57b672ce79307d24b73de64736f6c63430008110033",
  "linkReferences": {},
  "deployedLinkReferences": {}
}